{
  "contractName": "VMPX",
  "abi": [
    {
      "inputs": [
        {
          "internalType": "uint256",
          "name": "cycles_",
          "type": "uint256"
        }
      ],
      "stateMutability": "nonpayable",
      "type": "constructor"
    },
    {
      "anonymous": false,
      "inputs": [
        {
          "indexed": true,
          "internalType": "address",
          "name": "owner",
          "type": "address"
        },
        {
          "indexed": true,
          "internalType": "address",
          "name": "spender",
          "type": "address"
        },
        {
          "indexed": false,
          "internalType": "uint256",
          "name": "value",
          "type": "uint256"
        }
      ],
      "name": "Approval",
      "type": "event"
    },
    {
      "anonymous": false,
      "inputs": [
        {
          "indexed": true,
          "internalType": "address",
          "name": "from",
          "type": "address"
        },
        {
          "indexed": true,
          "internalType": "address",
          "name": "to",
          "type": "address"
        },
        {
          "indexed": false,
          "internalType": "uint256",
          "name": "value",
          "type": "uint256"
        }
      ],
      "name": "Transfer",
      "type": "event"
    },
    {
      "inputs": [],
      "name": "BATCH",
      "outputs": [
        {
          "internalType": "uint256",
          "name": "",
          "type": "uint256"
        }
      ],
      "stateMutability": "view",
      "type": "function",
      "constant": true
    },
    {
      "inputs": [
        {
          "internalType": "address",
          "name": "owner",
          "type": "address"
        },
        {
          "internalType": "address",
          "name": "spender",
          "type": "address"
        }
      ],
      "name": "allowance",
      "outputs": [
        {
          "internalType": "uint256",
          "name": "",
          "type": "uint256"
        }
      ],
      "stateMutability": "view",
      "type": "function",
      "constant": true
    },
    {
      "inputs": [
        {
          "internalType": "address",
          "name": "spender",
          "type": "address"
        },
        {
          "internalType": "uint256",
          "name": "amount",
          "type": "uint256"
        }
      ],
      "name": "approve",
      "outputs": [
        {
          "internalType": "bool",
          "name": "",
          "type": "bool"
        }
      ],
      "stateMutability": "nonpayable",
      "type": "function"
    },
    {
      "inputs": [
        {
          "internalType": "address",
          "name": "account",
          "type": "address"
        }
      ],
      "name": "balanceOf",
      "outputs": [
        {
          "internalType": "uint256",
          "name": "",
          "type": "uint256"
        }
      ],
      "stateMutability": "view",
      "type": "function",
      "constant": true
    },
    {
      "inputs": [],
      "name": "cap",
      "outputs": [
        {
          "internalType": "uint256",
          "name": "",
          "type": "uint256"
        }
      ],
      "stateMutability": "view",
      "type": "function",
      "constant": true
    },
    {
      "inputs": [],
      "name": "counter",
      "outputs": [
        {
          "internalType": "uint256",
          "name": "",
          "type": "uint256"
        }
      ],
      "stateMutability": "view",
      "type": "function",
      "constant": true
    },
    {
      "inputs": [],
      "name": "cycles",
      "outputs": [
        {
          "internalType": "uint256",
          "name": "",
          "type": "uint256"
        }
      ],
      "stateMutability": "view",
      "type": "function",
      "constant": true
    },
    {
      "inputs": [],
      "name": "decimals",
      "outputs": [
        {
          "internalType": "uint8",
          "name": "",
          "type": "uint8"
        }
      ],
      "stateMutability": "view",
      "type": "function",
      "constant": true
    },
    {
      "inputs": [
        {
          "internalType": "address",
          "name": "spender",
          "type": "address"
        },
        {
          "internalType": "uint256",
          "name": "subtractedValue",
          "type": "uint256"
        }
      ],
      "name": "decreaseAllowance",
      "outputs": [
        {
          "internalType": "bool",
          "name": "",
          "type": "bool"
        }
      ],
      "stateMutability": "nonpayable",
      "type": "function"
    },
    {
      "inputs": [
        {
          "internalType": "address",
          "name": "spender",
          "type": "address"
        },
        {
          "internalType": "uint256",
          "name": "addedValue",
          "type": "uint256"
        }
      ],
      "name": "increaseAllowance",
      "outputs": [
        {
          "internalType": "bool",
          "name": "",
          "type": "bool"
        }
      ],
      "stateMutability": "nonpayable",
      "type": "function"
    },
    {
      "inputs": [],
      "name": "name",
      "outputs": [
        {
          "internalType": "string",
          "name": "",
          "type": "string"
        }
      ],
      "stateMutability": "view",
      "type": "function",
      "constant": true
    },
    {
      "inputs": [],
      "name": "symbol",
      "outputs": [
        {
          "internalType": "string",
          "name": "",
          "type": "string"
        }
      ],
      "stateMutability": "view",
      "type": "function",
      "constant": true
    },
    {
      "inputs": [],
      "name": "totalSupply",
      "outputs": [
        {
          "internalType": "uint256",
          "name": "",
          "type": "uint256"
        }
      ],
      "stateMutability": "view",
      "type": "function",
      "constant": true
    },
    {
      "inputs": [
        {
          "internalType": "address",
          "name": "to",
          "type": "address"
        },
        {
          "internalType": "uint256",
          "name": "amount",
          "type": "uint256"
        }
      ],
      "name": "transfer",
      "outputs": [
        {
          "internalType": "bool",
          "name": "",
          "type": "bool"
        }
      ],
      "stateMutability": "nonpayable",
      "type": "function"
    },
    {
      "inputs": [
        {
          "internalType": "address",
          "name": "from",
          "type": "address"
        },
        {
          "internalType": "address",
          "name": "to",
          "type": "address"
        },
        {
          "internalType": "uint256",
          "name": "amount",
          "type": "uint256"
        }
      ],
      "name": "transferFrom",
      "outputs": [
        {
          "internalType": "bool",
          "name": "",
          "type": "bool"
        }
      ],
      "stateMutability": "nonpayable",
      "type": "function"
    },
    {
      "inputs": [
        {
          "internalType": "uint256",
          "name": "power",
          "type": "uint256"
        }
      ],
      "name": "mint",
      "outputs": [],
      "stateMutability": "nonpayable",
      "type": "function"
    }
  ],
  "bytecode": "0x60c06040523480156200001157600080fd5b5060405162000e4f38038062000e4f83398101604081905262000034916200012a565b6040805180820182526004808252630ac9aa0b60e31b602080840182905284518086019095529184529083015269170084d2a561ef4000009160036200007b8382620001e9565b5060046200008a8282620001e9565b50505060008111620000e35760405162461bcd60e51b815260206004820152601560248201527f45524332304361707065643a206361702069732030000000000000000000000060448201526064015b60405180910390fd5b60805280620001215760405162461bcd60e51b8152602060048201526009602482015268189859081b1a5b5a5d60ba1b6044820152606401620000da565b60a052620002b5565b6000602082840312156200013d57600080fd5b5051919050565b634e487b7160e01b600052604160045260246000fd5b600181811c908216806200016f57607f821691505b6020821081036200019057634e487b7160e01b600052602260045260246000fd5b50919050565b601f821115620001e457600081815260208120601f850160051c81016020861015620001bf5750805b601f850160051c820191505b81811015620001e057828155600101620001cb565b5050505b505050565b81516001600160401b0381111562000205576200020562000144565b6200021d816200021684546200015a565b8462000196565b602080601f8311600181146200025557600084156200023c5750858301515b600019600386901b1c1916600185901b178555620001e0565b600085815260208120601f198616915b82811015620002865788860151825594840194600190910190840162000265565b5085821015620002a55787850151600019600388901b60f8161c191681555b5050505050600190811b01905550565b60805160a051610b6d620002e26000396000818161018301526107bd015260006102f60152610b6d6000f3fe608060405234801561001057600080fd5b50600436106100d05760003560e01c806306fdde03146100d5578063095ea7b3146100f357806318160ddd1461011657806323b872dd14610128578063313ce5671461013b578063355274ea1461014a57806339509351146101525780635207d3211461016557806361bc221a146101755780636dbe55541461017e57806370a08231146101a557806395d89b41146101ce578063a0712d68146101d6578063a457c2d7146101eb578063a9059cbb146101fe578063dd62ed3e14610211575b600080fd5b6100dd610224565b6040516100ea9190610966565b60405180910390f35b6101066101013660046109d0565b6102b6565b60405190151581526020016100ea565b6002545b6040519081526020016100ea565b6101066101363660046109fa565b6102d0565b604051601281526020016100ea565b61011a6102f4565b6101066101603660046109d0565b610318565b61011a6808ac7230489e80000081565b61011a60055481565b61011a7f000000000000000000000000000000000000000000000000000000000000000081565b61011a6101b3366004610a36565b6001600160a01b031660009081526020819052604090205490565b6100dd61033a565b6101e96101e4366004610a58565b610349565b005b6101066101f93660046109d0565b6103be565b61010661020c3660046109d0565b610439565b61011a61021f366004610a71565b610447565b60606003805461023390610aa4565b80601f016020809104026020016040519081016040528092919081815260200182805461025f90610aa4565b80156102ac5780601f10610281576101008083540402835291602001916102ac565b820191906000526020600020905b81548152906001019060200180831161028f57829003601f168201915b5050505050905090565b6000336102c4818585610472565b60019150505b92915050565b6000336102de858285610596565b6102e9858585610610565b506001949350505050565b7f000000000000000000000000000000000000000000000000000000000000000090565b6000336102c481858561032b8383610447565b6103359190610af4565b610472565b60606004805461023390610aa4565b3233146103965760405162461bcd60e51b8152602060048201526016602482015275736f72727920666f6c6b732c206f6e6c7920454f417360501b60448201526064015b60405180910390fd5b61039f816107b4565b6103bb336103b6836808ac7230489e800000610b07565b610837565b50565b600033816103cc8286610447565b90508381101561042c5760405162461bcd60e51b815260206004820152602560248201527f45524332303a2064656372656173656420616c6c6f77616e63652062656c6f77604482015264207a65726f60d81b606482015260840161038d565b6102e98286868403610472565b6000336102c4818585610610565b6001600160a01b03918216600090815260016020908152604080832093909416825291909152205490565b6001600160a01b0383166104d45760405162461bcd60e51b8152602060048201526024808201527f45524332303a20617070726f76652066726f6d20746865207a65726f206164646044820152637265737360e01b606482015260840161038d565b6001600160a01b0382166105355760405162461bcd60e51b815260206004820152602260248201527f45524332303a20617070726f766520746f20746865207a65726f206164647265604482015261737360f01b606482015260840161038d565b6001600160a01b0383811660008181526001602090815260408083209487168084529482529182902085905590518481527f8c5be1e5ebec7d5bd14f71427d1e84f3dd0314c0f7b2291e5b200ac8c7c3b925910160405180910390a3505050565b60006105a28484610447565b9050600019811461060a57818110156105fd5760405162461bcd60e51b815260206004820152601d60248201527f45524332303a20696e73756666696369656e7420616c6c6f77616e6365000000604482015260640161038d565b61060a8484848403610472565b50505050565b6001600160a01b0383166106745760405162461bcd60e51b815260206004820152602560248201527f45524332303a207472616e736665722066726f6d20746865207a65726f206164604482015264647265737360d81b606482015260840161038d565b6001600160a01b0382166106d65760405162461bcd60e51b815260206004820152602360248201527f45524332303a207472616e7366657220746f20746865207a65726f206164647260448201526265737360e81b606482015260840161038d565b6001600160a01b0383166000908152602081905260409020548181101561074e5760405162461bcd60e51b815260206004820152602660248201527f45524332303a207472616e7366657220616d6f756e7420657863656564732062604482015265616c616e636560d01b606482015260840161038d565b6001600160a01b03848116600081815260208181526040808320878703905593871680835291849020805487019055925185815290927fddf252ad1be2c89b69c2b068fc378daa952ba7f163c4a11628f55a4df523b3ef910160405180910390a361060a565b60005b6107e1827f0000000000000000000000000000000000000000000000000000000000000000610b07565b811015610833576001600660006005600081546107fd90610b1e565b918290555081526020810191909152604001600020805460ff19169115159190911790558061082b81610b1e565b9150506107b7565b5050565b61083382826108446102f4565b8161084e60025490565b6108589190610af4565b11156108a25760405162461bcd60e51b8152602060048201526019602482015278115490cc8c10d85c1c19590e8818d85c08195e18d959591959603a1b604482015260640161038d565b61083382826001600160a01b0382166108fd5760405162461bcd60e51b815260206004820152601f60248201527f45524332303a206d696e7420746f20746865207a65726f206164647265737300604482015260640161038d565b806002600082825461090f9190610af4565b90915550506001600160a01b038216600081815260208181526040808320805486019055518481527fddf252ad1be2c89b69c2b068fc378daa952ba7f163c4a11628f55a4df523b3ef910160405180910390a35050565b600060208083528351808285015260005b8181101561099357858101830151858201604001528201610977565b506000604082860101526040601f19601f8301168501019250505092915050565b80356001600160a01b03811681146109cb57600080fd5b919050565b600080604083850312156109e357600080fd5b6109ec836109b4565b946020939093013593505050565b600080600060608486031215610a0f57600080fd5b610a18846109b4565b9250610a26602085016109b4565b9150604084013590509250925092565b600060208284031215610a4857600080fd5b610a51826109b4565b9392505050565b600060208284031215610a6a57600080fd5b5035919050565b60008060408385031215610a8457600080fd5b610a8d836109b4565b9150610a9b602084016109b4565b90509250929050565b600181811c90821680610ab857607f821691505b602082108103610ad857634e487b7160e01b600052602260045260246000fd5b50919050565b634e487b7160e01b600052601160045260246000fd5b808201808211156102ca576102ca610ade565b80820281158282048414176102ca576102ca610ade565b600060018201610b3057610b30610ade565b506001019056fea264697066735822122086be3dd239d4b3fcf89a42419c0bce2f05b7c72e08eaebddec0037c31914ba2764736f6c63430008110033",
  "immutableReferences": {
    "672": [
      {
        "length": 32,
        "start": 758
      }
    ],
    "792": [
      {
        "length": 32,
        "start": 387
      },
      {
        "length": 32,
        "start": 1981
      }
    ]
  },
  "source": "// SPDX-License-Identifier: MIT\npragma solidity ^0.8.10;\n\nimport \"@openzeppelin/contracts/token/ERC20/ERC20.sol\";\nimport \"@openzeppelin/contracts/token/ERC20/extensions/ERC20Capped.sol\";\n\ncontract VMPX is ERC20(\"VMPX\", \"VMPX\"), ERC20Capped(108_624 ether) {\n\n    uint256 public constant BATCH = 160 ether;\n    uint256 public immutable cycles; // depends on a network block side, set in constructor\n\n    uint256 public counter;\n    mapping(uint256 => bool) private _work;\n\n    constructor(uint256 cycles_) {\n        require(cycles_ > 0, 'bad limit');\n        cycles = cycles_;\n    }\n\n    function _doWork(uint256 power) internal {\n        for(uint i = 0; i < cycles * power; i++) {\n            _work[++counter] = true;\n        }\n    }\n\n    function _mint(address account, uint256 amount) internal override (ERC20, ERC20Capped) {\n        super._mint(account, amount);\n    }\n\n    function mint(uint256 power) external {\n        require(tx.origin == msg.sender, 'sorry folks, only EOAs');\n        _doWork(power);\n        _mint(msg.sender, BATCH * power);\n    }\n}\n",
  "sourcePath": "/Users/lbelyaev/dev/vmpx/contracts/VMPX.sol",
  "compiler": {
    "name": "solc",
    "version": "0.8.17+commit.8df45f5f.Emscripten.clang"
  },
  "schemaVersion": "3.4.10",
  "updatedAt": "2023-06-04T19:12:11.475Z",
  "networkType": "ethereum",
  "devdoc": {
    "kind": "dev",
    "methods": {
      "allowance(address,address)": {
        "details": "See {IERC20-allowance}."
      },
      "approve(address,uint256)": {
        "details": "See {IERC20-approve}. NOTE: If `amount` is the maximum `uint256`, the allowance is not updated on `transferFrom`. This is semantically equivalent to an infinite approval. Requirements: - `spender` cannot be the zero address."
      },
      "balanceOf(address)": {
        "details": "See {IERC20-balanceOf}."
      },
      "cap()": {
        "details": "Returns the cap on the token's total supply."
      },
      "decimals()": {
        "details": "Returns the number of decimals used to get its user representation. For example, if `decimals` equals `2`, a balance of `505` tokens should be displayed to a user as `5.05` (`505 / 10 ** 2`). Tokens usually opt for a value of 18, imitating the relationship between Ether and Wei. This is the value {ERC20} uses, unless this function is overridden; NOTE: This information is only used for _display_ purposes: it in no way affects any of the arithmetic of the contract, including {IERC20-balanceOf} and {IERC20-transfer}."
      },
      "decreaseAllowance(address,uint256)": {
        "details": "Atomically decreases the allowance granted to `spender` by the caller. This is an alternative to {approve} that can be used as a mitigation for problems described in {IERC20-approve}. Emits an {Approval} event indicating the updated allowance. Requirements: - `spender` cannot be the zero address. - `spender` must have allowance for the caller of at least `subtractedValue`."
      },
      "increaseAllowance(address,uint256)": {
        "details": "Atomically increases the allowance granted to `spender` by the caller. This is an alternative to {approve} that can be used as a mitigation for problems described in {IERC20-approve}. Emits an {Approval} event indicating the updated allowance. Requirements: - `spender` cannot be the zero address."
      },
      "name()": {
        "details": "Returns the name of the token."
      },
      "symbol()": {
        "details": "Returns the symbol of the token, usually a shorter version of the name."
      },
      "totalSupply()": {
        "details": "See {IERC20-totalSupply}."
      },
      "transfer(address,uint256)": {
        "details": "See {IERC20-transfer}. Requirements: - `to` cannot be the zero address. - the caller must have a balance of at least `amount`."
      },
      "transferFrom(address,address,uint256)": {
        "details": "See {IERC20-transferFrom}. Emits an {Approval} event indicating the updated allowance. This is not required by the EIP. See the note at the beginning of {ERC20}. NOTE: Does not update the allowance if the current allowance is the maximum `uint256`. Requirements: - `from` and `to` cannot be the zero address. - `from` must have a balance of at least `amount`. - the caller must have allowance for ``from``'s tokens of at least `amount`."
      }
    },
    "version": 1
  },
  "userdoc": {
    "kind": "user",
    "methods": {},
    "version": 1
  }
}