{
  "contractName": "VMPX",
  "abi": [
    {
      "inputs": [
        {
          "internalType": "uint256",
          "name": "cycles_",
          "type": "uint256"
        },
        {
          "internalType": "uint256",
          "name": "startBlockNumber_",
          "type": "uint256"
        }
      ],
      "stateMutability": "nonpayable",
      "type": "constructor"
    },
    {
      "anonymous": false,
      "inputs": [
        {
          "indexed": true,
          "internalType": "address",
          "name": "owner",
          "type": "address"
        },
        {
          "indexed": true,
          "internalType": "address",
          "name": "spender",
          "type": "address"
        },
        {
          "indexed": false,
          "internalType": "uint256",
          "name": "value",
          "type": "uint256"
        }
      ],
      "name": "Approval",
      "type": "event"
    },
    {
      "anonymous": false,
      "inputs": [
        {
          "indexed": true,
          "internalType": "address",
          "name": "from",
          "type": "address"
        },
        {
          "indexed": true,
          "internalType": "address",
          "name": "to",
          "type": "address"
        },
        {
          "indexed": false,
          "internalType": "uint256",
          "name": "value",
          "type": "uint256"
        }
      ],
      "name": "Transfer",
      "type": "event"
    },
    {
      "inputs": [],
      "name": "AUTHORS",
      "outputs": [
        {
          "internalType": "string",
          "name": "",
          "type": "string"
        }
      ],
      "stateMutability": "view",
      "type": "function",
      "constant": true
    },
    {
      "inputs": [],
      "name": "BATCH",
      "outputs": [
        {
          "internalType": "uint256",
          "name": "",
          "type": "uint256"
        }
      ],
      "stateMutability": "view",
      "type": "function",
      "constant": true
    },
    {
      "inputs": [
        {
          "internalType": "address",
          "name": "owner",
          "type": "address"
        },
        {
          "internalType": "address",
          "name": "spender",
          "type": "address"
        }
      ],
      "name": "allowance",
      "outputs": [
        {
          "internalType": "uint256",
          "name": "",
          "type": "uint256"
        }
      ],
      "stateMutability": "view",
      "type": "function",
      "constant": true
    },
    {
      "inputs": [
        {
          "internalType": "address",
          "name": "spender",
          "type": "address"
        },
        {
          "internalType": "uint256",
          "name": "amount",
          "type": "uint256"
        }
      ],
      "name": "approve",
      "outputs": [
        {
          "internalType": "bool",
          "name": "",
          "type": "bool"
        }
      ],
      "stateMutability": "nonpayable",
      "type": "function"
    },
    {
      "inputs": [
        {
          "internalType": "address",
          "name": "account",
          "type": "address"
        }
      ],
      "name": "balanceOf",
      "outputs": [
        {
          "internalType": "uint256",
          "name": "",
          "type": "uint256"
        }
      ],
      "stateMutability": "view",
      "type": "function",
      "constant": true
    },
    {
      "inputs": [],
      "name": "cap",
      "outputs": [
        {
          "internalType": "uint256",
          "name": "",
          "type": "uint256"
        }
      ],
      "stateMutability": "view",
      "type": "function",
      "constant": true
    },
    {
      "inputs": [],
      "name": "counter",
      "outputs": [
        {
          "internalType": "uint256",
          "name": "",
          "type": "uint256"
        }
      ],
      "stateMutability": "view",
      "type": "function",
      "constant": true
    },
    {
      "inputs": [],
      "name": "cycles",
      "outputs": [
        {
          "internalType": "uint256",
          "name": "",
          "type": "uint256"
        }
      ],
      "stateMutability": "view",
      "type": "function",
      "constant": true
    },
    {
      "inputs": [],
      "name": "decimals",
      "outputs": [
        {
          "internalType": "uint8",
          "name": "",
          "type": "uint8"
        }
      ],
      "stateMutability": "view",
      "type": "function",
      "constant": true
    },
    {
      "inputs": [
        {
          "internalType": "address",
          "name": "spender",
          "type": "address"
        },
        {
          "internalType": "uint256",
          "name": "subtractedValue",
          "type": "uint256"
        }
      ],
      "name": "decreaseAllowance",
      "outputs": [
        {
          "internalType": "bool",
          "name": "",
          "type": "bool"
        }
      ],
      "stateMutability": "nonpayable",
      "type": "function"
    },
    {
      "inputs": [
        {
          "internalType": "address",
          "name": "spender",
          "type": "address"
        },
        {
          "internalType": "uint256",
          "name": "addedValue",
          "type": "uint256"
        }
      ],
      "name": "increaseAllowance",
      "outputs": [
        {
          "internalType": "bool",
          "name": "",
          "type": "bool"
        }
      ],
      "stateMutability": "nonpayable",
      "type": "function"
    },
    {
      "inputs": [],
      "name": "name",
      "outputs": [
        {
          "internalType": "string",
          "name": "",
          "type": "string"
        }
      ],
      "stateMutability": "view",
      "type": "function",
      "constant": true
    },
    {
      "inputs": [],
      "name": "startBlockNumber",
      "outputs": [
        {
          "internalType": "uint256",
          "name": "",
          "type": "uint256"
        }
      ],
      "stateMutability": "view",
      "type": "function",
      "constant": true
    },
    {
      "inputs": [],
      "name": "symbol",
      "outputs": [
        {
          "internalType": "string",
          "name": "",
          "type": "string"
        }
      ],
      "stateMutability": "view",
      "type": "function",
      "constant": true
    },
    {
      "inputs": [],
      "name": "totalSupply",
      "outputs": [
        {
          "internalType": "uint256",
          "name": "",
          "type": "uint256"
        }
      ],
      "stateMutability": "view",
      "type": "function",
      "constant": true
    },
    {
      "inputs": [
        {
          "internalType": "address",
          "name": "to",
          "type": "address"
        },
        {
          "internalType": "uint256",
          "name": "amount",
          "type": "uint256"
        }
      ],
      "name": "transfer",
      "outputs": [
        {
          "internalType": "bool",
          "name": "",
          "type": "bool"
        }
      ],
      "stateMutability": "nonpayable",
      "type": "function"
    },
    {
      "inputs": [
        {
          "internalType": "address",
          "name": "from",
          "type": "address"
        },
        {
          "internalType": "address",
          "name": "to",
          "type": "address"
        },
        {
          "internalType": "uint256",
          "name": "amount",
          "type": "uint256"
        }
      ],
      "name": "transferFrom",
      "outputs": [
        {
          "internalType": "bool",
          "name": "",
          "type": "bool"
        }
      ],
      "stateMutability": "nonpayable",
      "type": "function"
    },
    {
      "inputs": [
        {
          "internalType": "uint256",
          "name": "power",
          "type": "uint256"
        }
      ],
      "name": "mint",
      "outputs": [],
      "stateMutability": "nonpayable",
      "type": "function"
    }
  ],
  "bytecode": "0x60e06040523480156200001157600080fd5b506040516200102d3803806200102d83398101604081905262000034916200012e565b6040805180820182526004808252630ac9aa0b60e31b60208084018290528451808601909552918452908301526a59da06d6d6068e920000009160036200007c8382620001f8565b5060046200008b8282620001f8565b50505060008111620000e45760405162461bcd60e51b815260206004820152601560248201527f45524332304361707065643a206361702069732030000000000000000000000060448201526064015b60405180910390fd5b60805281620001225760405162461bcd60e51b8152602060048201526009602482015268189859081b1a5b5a5d60ba1b6044820152606401620000db565b60c05260a052620002c4565b600080604083850312156200014257600080fd5b505080516020909101519092909150565b634e487b7160e01b600052604160045260246000fd5b600181811c908216806200017e57607f821691505b6020821081036200019f57634e487b7160e01b600052602260045260246000fd5b50919050565b601f821115620001f357600081815260208120601f850160051c81016020861015620001ce5750805b601f850160051c820191505b81811015620001ef57828155600101620001da565b5050505b505050565b81516001600160401b0381111562000214576200021462000153565b6200022c8162000225845462000169565b84620001a5565b602080601f8311600181146200026457600084156200024b5750858301515b600019600386901b1c1916600185901b178555620001ef565b600085815260208120601f198616915b82811015620002955788860151825594840194600190910190840162000274565b5085821015620002b45787850151600019600388901b60f8161c191681555b5050505050600190811b01905550565b60805160a05160c051610d2b620003026000396000818161018001526103900152600081816101c001526109410152600061033b0152610d2b6000f3fe608060405234801561001057600080fd5b50600436106100e65760003560e01c806306fdde03146100eb578063095ea7b31461010957806318160ddd1461012c57806323b872dd1461013e578063313ce56714610151578063355274ea146101605780633950935114610168578063498a4c2d1461017b5780635207d321146101a257806361bc221a146101b25780636dbe5554146101bb57806370a08231146101e257806395d89b411461020b578063a0712d6814610213578063a457c2d714610228578063a9059cbb1461023b578063ba3ec7411461024e578063dd62ed3e14610256575b600080fd5b6100f3610269565b6040516101009190610aea565b60405180910390f35b61011c610117366004610b54565b6102fb565b6040519015158152602001610100565b6002545b604051908152602001610100565b61011c61014c366004610b7e565b610315565b60405160128152602001610100565b610130610339565b61011c610176366004610b54565b61035d565b6101307f000000000000000000000000000000000000000000000000000000000000000081565b610130680ad78ebc5ac620000081565b61013060055481565b6101307f000000000000000000000000000000000000000000000000000000000000000081565b6101306101f0366004610bba565b6001600160a01b031660009081526020819052604090205490565b6100f361037f565b610226610221366004610bdc565b61038e565b005b61011c610236366004610b54565b610526565b61011c610249366004610b54565b6105a1565b6100f36105af565b610130610264366004610bf5565b6105cb565b60606003805461027890610c28565b80601f01602080910402602001604051908101604052809291908181526020018280546102a490610c28565b80156102f15780601f106102c6576101008083540402835291602001916102f1565b820191906000526020600020905b8154815290600101906020018083116102d457829003601f168201915b5050505050905090565b6000336103098185856105f6565b60019150505b92915050565b60003361032385828561071a565b61032e858585610794565b506001949350505050565b7f000000000000000000000000000000000000000000000000000000000000000090565b60003361030981858561037083836105cb565b61037a9190610c78565b6105f6565b60606004805461027890610c28565b7f000000000000000000000000000000000000000000000000000000000000000043116103f85760405162461bcd60e51b81526020600482015260136024820152721b5a5b9d081b9bdd081858dd1a5d99481e595d606a1b60448201526064015b60405180910390fd5b600081118015610408575060c481105b61044a5760405162461bcd60e51b8152602060048201526013602482015272706f776572206f7574206f6620626f756e647360681b60448201526064016103ef565b32331461048d5760405162461bcd60e51b81526020600482015260116024820152701bdb9b1e481153d05cc8185b1b1bddd959607a1b60448201526064016103ef565b610495610339565b6104a882680ad78ebc5ac6200000610c8b565b6002546104b59190610c78565b11156104fe5760405162461bcd60e51b815260206004820152601860248201527706d696e74696e6720776f756c6420657863656564206361760441b60448201526064016103ef565b61050781610938565b6105233361051e83680ad78ebc5ac6200000610c8b565b6109bb565b50565b6000338161053482866105cb565b9050838110156105945760405162461bcd60e51b815260206004820152602560248201527f45524332303a2064656372656173656420616c6c6f77616e63652062656c6f77604482015264207a65726f60d81b60648201526084016103ef565b61032e82868684036105f6565b600033610309818585610794565b6040518060600160405280603a8152602001610cbc603a913981565b6001600160a01b03918216600090815260016020908152604080832093909416825291909152205490565b6001600160a01b0383166106585760405162461bcd60e51b8152602060048201526024808201527f45524332303a20617070726f76652066726f6d20746865207a65726f206164646044820152637265737360e01b60648201526084016103ef565b6001600160a01b0382166106b95760405162461bcd60e51b815260206004820152602260248201527f45524332303a20617070726f766520746f20746865207a65726f206164647265604482015261737360f01b60648201526084016103ef565b6001600160a01b0383811660008181526001602090815260408083209487168084529482529182902085905590518481527f8c5be1e5ebec7d5bd14f71427d1e84f3dd0314c0f7b2291e5b200ac8c7c3b925910160405180910390a3505050565b600061072684846105cb565b9050600019811461078e57818110156107815760405162461bcd60e51b815260206004820152601d60248201527f45524332303a20696e73756666696369656e7420616c6c6f77616e636500000060448201526064016103ef565b61078e84848484036105f6565b50505050565b6001600160a01b0383166107f85760405162461bcd60e51b815260206004820152602560248201527f45524332303a207472616e736665722066726f6d20746865207a65726f206164604482015264647265737360d81b60648201526084016103ef565b6001600160a01b03821661085a5760405162461bcd60e51b815260206004820152602360248201527f45524332303a207472616e7366657220746f20746865207a65726f206164647260448201526265737360e81b60648201526084016103ef565b6001600160a01b038316600090815260208190526040902054818110156108d25760405162461bcd60e51b815260206004820152602660248201527f45524332303a207472616e7366657220616d6f756e7420657863656564732062604482015265616c616e636560d01b60648201526084016103ef565b6001600160a01b03848116600081815260208181526040808320878703905593871680835291849020805487019055925185815290927fddf252ad1be2c89b69c2b068fc378daa952ba7f163c4a11628f55a4df523b3ef910160405180910390a361078e565b60005b610965827f0000000000000000000000000000000000000000000000000000000000000000610c8b565b8110156109b75760016006600060056000815461098190610ca2565b918290555081526020810191909152604001600020805460ff1916911515919091179055806109af81610ca2565b91505061093b565b5050565b6109b782826109c8610339565b816109d260025490565b6109dc9190610c78565b1115610a265760405162461bcd60e51b8152602060048201526019602482015278115490cc8c10d85c1c19590e8818d85c08195e18d959591959603a1b60448201526064016103ef565b6109b782826001600160a01b038216610a815760405162461bcd60e51b815260206004820152601f60248201527f45524332303a206d696e7420746f20746865207a65726f20616464726573730060448201526064016103ef565b8060026000828254610a939190610c78565b90915550506001600160a01b038216600081815260208181526040808320805486019055518481527fddf252ad1be2c89b69c2b068fc378daa952ba7f163c4a11628f55a4df523b3ef910160405180910390a35050565b600060208083528351808285015260005b81811015610b1757858101830151858201604001528201610afb565b506000604082860101526040601f19601f8301168501019250505092915050565b80356001600160a01b0381168114610b4f57600080fd5b919050565b60008060408385031215610b6757600080fd5b610b7083610b38565b946020939093013593505050565b600080600060608486031215610b9357600080fd5b610b9c84610b38565b9250610baa60208501610b38565b9150604084013590509250925092565b600060208284031215610bcc57600080fd5b610bd582610b38565b9392505050565b600060208284031215610bee57600080fd5b5035919050565b60008060408385031215610c0857600080fd5b610c1183610b38565b9150610c1f60208401610b38565b90509250929050565b600181811c90821680610c3c57607f821691505b602082108103610c5c57634e487b7160e01b600052602260045260246000fd5b50919050565b634e487b7160e01b600052601160045260246000fd5b8082018082111561030f5761030f610c62565b808202811582820484141761030f5761030f610c62565b600060018201610cb457610cb4610c62565b506001019056fe404d724a61636b4c6576696e204061636b65626f6d20406c62656c7961657620404a616d6d614265616e73206661697263727970746f2e6f7267a26469706673582212208fa203187f3ebc32809b823ca91dd6ac39afb18b11b67be21901a2afba83ad6064736f6c63430008110033",
  "immutableReferences": {
    "672": [
      {
        "length": 32,
        "start": 827
      }
    ],
    "795": [
      {
        "length": 32,
        "start": 448
      },
      {
        "length": 32,
        "start": 2369
      }
    ],
    "797": [
      {
        "length": 32,
        "start": 384
      },
      {
        "length": 32,
        "start": 912
      }
    ]
  },
  "source": "// SPDX-License-Identifier: MIT\npragma solidity ^0.8.10;\n\nimport \"@openzeppelin/contracts/token/ERC20/ERC20.sol\";\nimport \"@openzeppelin/contracts/token/ERC20/extensions/ERC20Capped.sol\";\n\ncontract VMPX is ERC20(\"VMPX\", \"VMPX\"), ERC20Capped(108_624_000 ether) {\n\n    string public constant AUTHORS = \"@MrJackLevin @ackebom @lbelyaev @JammaBeans faircrypto.org\";\n\n    uint256 public constant BATCH = 200 ether;\n    uint256 public immutable cycles; // depends on a network block side, set in constructor\n    uint256 public immutable startBlockNumber;\n\n    uint256 public counter;\n    mapping(uint256 => bool) private _work;\n\n    /**\n        @dev    Start of Operations Guard\n    */\n    modifier notBeforeStart() {\n        require(block.number > startBlockNumber, \"mint not active yet\");\n        _;\n    }\n\n\n    constructor(uint256 cycles_, uint256 startBlockNumber_) {\n        require(cycles_ > 0, 'bad limit');\n        startBlockNumber = startBlockNumber_;\n        cycles = cycles_;\n    }\n\n    function _doWork(uint256 power) internal {\n        for(uint i = 0; i < cycles * power; i++) {\n            _work[++counter] = true;\n        }\n    }\n\n    function _mint(address account, uint256 amount) internal override (ERC20, ERC20Capped) {\n        super._mint(account, amount);\n    }\n\n    function mint(uint256 power) external notBeforeStart {\n        require(power > 0 && power < 196, 'power out of bounds');\n        require(tx.origin == msg.sender, 'only EOAs allowed');\n        require(totalSupply() + (BATCH * power) <= cap(), \"minting would exceed cap\");\n\n        _doWork(power);\n        _mint(msg.sender, BATCH * power);\n    }\n}\n",
  "sourcePath": "/Users/lbelyaev/dev/vmpx/contracts/VMPX.sol",
  "compiler": {
    "name": "solc",
    "version": "0.8.17+commit.8df45f5f.Emscripten.clang"
  },
  "schemaVersion": "3.4.10",
  "updatedAt": "2023-06-29T21:30:31.429Z",
  "networkType": "ethereum",
  "devdoc": {
    "kind": "dev",
    "methods": {
      "allowance(address,address)": {
        "details": "See {IERC20-allowance}."
      },
      "approve(address,uint256)": {
        "details": "See {IERC20-approve}. NOTE: If `amount` is the maximum `uint256`, the allowance is not updated on `transferFrom`. This is semantically equivalent to an infinite approval. Requirements: - `spender` cannot be the zero address."
      },
      "balanceOf(address)": {
        "details": "See {IERC20-balanceOf}."
      },
      "cap()": {
        "details": "Returns the cap on the token's total supply."
      },
      "decimals()": {
        "details": "Returns the number of decimals used to get its user representation. For example, if `decimals` equals `2`, a balance of `505` tokens should be displayed to a user as `5.05` (`505 / 10 ** 2`). Tokens usually opt for a value of 18, imitating the relationship between Ether and Wei. This is the value {ERC20} uses, unless this function is overridden; NOTE: This information is only used for _display_ purposes: it in no way affects any of the arithmetic of the contract, including {IERC20-balanceOf} and {IERC20-transfer}."
      },
      "decreaseAllowance(address,uint256)": {
        "details": "Atomically decreases the allowance granted to `spender` by the caller. This is an alternative to {approve} that can be used as a mitigation for problems described in {IERC20-approve}. Emits an {Approval} event indicating the updated allowance. Requirements: - `spender` cannot be the zero address. - `spender` must have allowance for the caller of at least `subtractedValue`."
      },
      "increaseAllowance(address,uint256)": {
        "details": "Atomically increases the allowance granted to `spender` by the caller. This is an alternative to {approve} that can be used as a mitigation for problems described in {IERC20-approve}. Emits an {Approval} event indicating the updated allowance. Requirements: - `spender` cannot be the zero address."
      },
      "name()": {
        "details": "Returns the name of the token."
      },
      "symbol()": {
        "details": "Returns the symbol of the token, usually a shorter version of the name."
      },
      "totalSupply()": {
        "details": "See {IERC20-totalSupply}."
      },
      "transfer(address,uint256)": {
        "details": "See {IERC20-transfer}. Requirements: - `to` cannot be the zero address. - the caller must have a balance of at least `amount`."
      },
      "transferFrom(address,address,uint256)": {
        "details": "See {IERC20-transferFrom}. Emits an {Approval} event indicating the updated allowance. This is not required by the EIP. See the note at the beginning of {ERC20}. NOTE: Does not update the allowance if the current allowance is the maximum `uint256`. Requirements: - `from` and `to` cannot be the zero address. - `from` must have a balance of at least `amount`. - the caller must have allowance for ``from``'s tokens of at least `amount`."
      }
    },
    "version": 1
  },
  "userdoc": {
    "kind": "user",
    "methods": {},
    "version": 1
  }
}